{
  "_format": "hh-sol-artifact-1",
  "contractName": "Duel",
  "sourceName": "contracts/Duel.sol",
  "abi": [
    {
      "inputs": [
        {
          "internalType": "address",
          "name": "_feeRecipient",
          "type": "address"
        }
      ],
      "stateMutability": "nonpayable",
      "type": "constructor"
    },
    {
      "inputs": [],
      "name": "EnforcedPause",
      "type": "error"
    },
    {
      "inputs": [],
      "name": "ExpectedPause",
      "type": "error"
    },
    {
      "inputs": [
        {
          "internalType": "address",
          "name": "owner",
          "type": "address"
        }
      ],
      "name": "OwnableInvalidOwner",
      "type": "error"
    },
    {
      "inputs": [
        {
          "internalType": "address",
          "name": "account",
          "type": "address"
        }
      ],
      "name": "OwnableUnauthorizedAccount",
      "type": "error"
    },
    {
      "inputs": [],
      "name": "ReentrancyGuardReentrantCall",
      "type": "error"
    },
    {
      "inputs": [
        {
          "internalType": "address",
          "name": "token",
          "type": "address"
        }
      ],
      "name": "SafeERC20FailedOperation",
      "type": "error"
    },
    {
      "anonymous": false,
      "inputs": [
        {
          "indexed": true,
          "internalType": "uint256",
          "name": "duelId",
          "type": "uint256"
        },
        {
          "indexed": true,
          "internalType": "address",
          "name": "creator",
          "type": "address"
        }
      ],
      "name": "DuelCancelled",
      "type": "event"
    },
    {
      "anonymous": false,
      "inputs": [
        {
          "indexed": true,
          "internalType": "uint256",
          "name": "duelId",
          "type": "uint256"
        },
        {
          "indexed": true,
          "internalType": "address",
          "name": "creator",
          "type": "address"
        },
        {
          "indexed": false,
          "internalType": "address",
          "name": "tokenAddress",
          "type": "address"
        },
        {
          "indexed": false,
          "internalType": "uint256",
          "name": "wagerAmount",
          "type": "uint256"
        },
        {
          "indexed": false,
          "internalType": "uint256",
          "name": "duration",
          "type": "uint256"
        }
      ],
      "name": "DuelCreated",
      "type": "event"
    },
    {
      "anonymous": false,
      "inputs": [
        {
          "indexed": true,
          "internalType": "uint256",
          "name": "duelId",
          "type": "uint256"
        },
        {
          "indexed": true,
          "internalType": "address",
          "name": "opponent",
          "type": "address"
        },
        {
          "indexed": false,
          "internalType": "uint256",
          "name": "startTime",
          "type": "uint256"
        },
        {
          "indexed": false,
          "internalType": "uint256",
          "name": "endTime",
          "type": "uint256"
        }
      ],
      "name": "DuelJoined",
      "type": "event"
    },
    {
      "anonymous": false,
      "inputs": [
        {
          "indexed": true,
          "internalType": "uint256",
          "name": "duelId",
          "type": "uint256"
        },
        {
          "indexed": true,
          "internalType": "address",
          "name": "winner",
          "type": "address"
        },
        {
          "indexed": false,
          "internalType": "uint256",
          "name": "totalPayout",
          "type": "uint256"
        }
      ],
      "name": "DuelResolved",
      "type": "event"
    },
    {
      "anonymous": false,
      "inputs": [
        {
          "indexed": true,
          "internalType": "address",
          "name": "previousOwner",
          "type": "address"
        },
        {
          "indexed": true,
          "internalType": "address",
          "name": "newOwner",
          "type": "address"
        }
      ],
      "name": "OwnershipTransferred",
      "type": "event"
    },
    {
      "anonymous": false,
      "inputs": [
        {
          "indexed": false,
          "internalType": "address",
          "name": "account",
          "type": "address"
        }
      ],
      "name": "Paused",
      "type": "event"
    },
    {
      "anonymous": false,
      "inputs": [
        {
          "indexed": false,
          "internalType": "address",
          "name": "account",
          "type": "address"
        }
      ],
      "name": "Unpaused",
      "type": "event"
    },
    {
      "inputs": [],
      "name": "MAX_DURATION",
      "outputs": [
        {
          "internalType": "uint256",
          "name": "",
          "type": "uint256"
        }
      ],
      "stateMutability": "view",
      "type": "function"
    },
    {
      "inputs": [],
      "name": "MIN_DURATION",
      "outputs": [
        {
          "internalType": "uint256",
          "name": "",
          "type": "uint256"
        }
      ],
      "stateMutability": "view",
      "type": "function"
    },
    {
      "inputs": [
        {
          "internalType": "address",
          "name": "resolver",
          "type": "address"
        }
      ],
      "name": "addAuthorizedResolver",
      "outputs": [],
      "stateMutability": "nonpayable",
      "type": "function"
    },
    {
      "inputs": [
        {
          "internalType": "address",
          "name": "",
          "type": "address"
        }
      ],
      "name": "authorizedResolvers",
      "outputs": [
        {
          "internalType": "bool",
          "name": "",
          "type": "bool"
        }
      ],
      "stateMutability": "view",
      "type": "function"
    },
    {
      "inputs": [
        {
          "internalType": "uint256",
          "name": "duelId",
          "type": "uint256"
        }
      ],
      "name": "cancelDuel",
      "outputs": [],
      "stateMutability": "nonpayable",
      "type": "function"
    },
    {
      "inputs": [
        {
          "internalType": "address",
          "name": "tokenAddress",
          "type": "address"
        },
        {
          "internalType": "uint256",
          "name": "wagerAmount",
          "type": "uint256"
        },
        {
          "internalType": "uint256",
          "name": "duration",
          "type": "uint256"
        }
      ],
      "name": "createDuel",
      "outputs": [
        {
          "internalType": "uint256",
          "name": "",
          "type": "uint256"
        }
      ],
      "stateMutability": "nonpayable",
      "type": "function"
    },
    {
      "inputs": [
        {
          "internalType": "uint256",
          "name": "",
          "type": "uint256"
        }
      ],
      "name": "duels",
      "outputs": [
        {
          "internalType": "uint256",
          "name": "id",
          "type": "uint256"
        },
        {
          "internalType": "address",
          "name": "creator",
          "type": "address"
        },
        {
          "internalType": "address",
          "name": "opponent",
          "type": "address"
        },
        {
          "internalType": "address",
          "name": "tokenAddress",
          "type": "address"
        },
        {
          "internalType": "uint256",
          "name": "wagerAmount",
          "type": "uint256"
        },
        {
          "internalType": "uint256",
          "name": "duration",
          "type": "uint256"
        },
        {
          "internalType": "uint256",
          "name": "startTime",
          "type": "uint256"
        },
        {
          "internalType": "uint256",
          "name": "endTime",
          "type": "uint256"
        },
        {
          "internalType": "bool",
          "name": "resolved",
          "type": "bool"
        },
        {
          "internalType": "address",
          "name": "winner",
          "type": "address"
        },
        {
          "internalType": "enum Duel.DuelStatus",
          "name": "status",
          "type": "uint8"
        }
      ],
      "stateMutability": "view",
      "type": "function"
    },
    {
      "inputs": [
        {
          "internalType": "address",
          "name": "tokenAddress",
          "type": "address"
        },
        {
          "internalType": "uint256",
          "name": "amount",
          "type": "uint256"
        }
      ],
      "name": "emergencyWithdraw",
      "outputs": [],
      "stateMutability": "nonpayable",
      "type": "function"
    },
    {
      "inputs": [],
      "name": "feeRecipient",
      "outputs": [
        {
          "internalType": "address",
          "name": "",
          "type": "address"
        }
      ],
      "stateMutability": "view",
      "type": "function"
    },
    {
      "inputs": [
        {
          "internalType": "uint256",
          "name": "duelId",
          "type": "uint256"
        }
      ],
      "name": "getDuel",
      "outputs": [
        {
          "components": [
            {
              "internalType": "uint256",
              "name": "id",
              "type": "uint256"
            },
            {
              "internalType": "address",
              "name": "creator",
              "type": "address"
            },
            {
              "internalType": "address",
              "name": "opponent",
              "type": "address"
            },
            {
              "internalType": "address",
              "name": "tokenAddress",
              "type": "address"
            },
            {
              "internalType": "uint256",
              "name": "wagerAmount",
              "type": "uint256"
            },
            {
              "internalType": "uint256",
              "name": "duration",
              "type": "uint256"
            },
            {
              "internalType": "uint256",
              "name": "startTime",
              "type": "uint256"
            },
            {
              "internalType": "uint256",
              "name": "endTime",
              "type": "uint256"
            },
            {
              "internalType": "bool",
              "name": "resolved",
              "type": "bool"
            },
            {
              "internalType": "address",
              "name": "winner",
              "type": "address"
            },
            {
              "internalType": "enum Duel.DuelStatus",
              "name": "status",
              "type": "uint8"
            }
          ],
          "internalType": "struct Duel.DuelInfo",
          "name": "",
          "type": "tuple"
        }
      ],
      "stateMutability": "view",
      "type": "function"
    },
    {
      "inputs": [
        {
          "internalType": "uint256",
          "name": "duelId",
          "type": "uint256"
        }
      ],
      "name": "isDuelExpired",
      "outputs": [
        {
          "internalType": "bool",
          "name": "",
          "type": "bool"
        }
      ],
      "stateMutability": "view",
      "type": "function"
    },
    {
      "inputs": [
        {
          "internalType": "uint256",
          "name": "duelId",
          "type": "uint256"
        }
      ],
      "name": "joinDuel",
      "outputs": [],
      "stateMutability": "nonpayable",
      "type": "function"
    },
    {
      "inputs": [],
      "name": "nextDuelId",
      "outputs": [
        {
          "internalType": "uint256",
          "name": "",
          "type": "uint256"
        }
      ],
      "stateMutability": "view",
      "type": "function"
    },
    {
      "inputs": [],
      "name": "owner",
      "outputs": [
        {
          "internalType": "address",
          "name": "",
          "type": "address"
        }
      ],
      "stateMutability": "view",
      "type": "function"
    },
    {
      "inputs": [],
      "name": "pause",
      "outputs": [],
      "stateMutability": "nonpayable",
      "type": "function"
    },
    {
      "inputs": [],
      "name": "paused",
      "outputs": [
        {
          "internalType": "bool",
          "name": "",
          "type": "bool"
        }
      ],
      "stateMutability": "view",
      "type": "function"
    },
    {
      "inputs": [],
      "name": "platformFeeRate",
      "outputs": [
        {
          "internalType": "uint256",
          "name": "",
          "type": "uint256"
        }
      ],
      "stateMutability": "view",
      "type": "function"
    },
    {
      "inputs": [
        {
          "internalType": "address",
          "name": "resolver",
          "type": "address"
        }
      ],
      "name": "removeAuthorizedResolver",
      "outputs": [],
      "stateMutability": "nonpayable",
      "type": "function"
    },
    {
      "inputs": [],
      "name": "renounceOwnership",
      "outputs": [],
      "stateMutability": "nonpayable",
      "type": "function"
    },
    {
      "inputs": [
        {
          "internalType": "uint256",
          "name": "duelId",
          "type": "uint256"
        },
        {
          "internalType": "address",
          "name": "winner",
          "type": "address"
        }
      ],
      "name": "resolveDuel",
      "outputs": [],
      "stateMutability": "nonpayable",
      "type": "function"
    },
    {
      "inputs": [
        {
          "internalType": "address",
          "name": "newRecipient",
          "type": "address"
        }
      ],
      "name": "setFeeRecipient",
      "outputs": [],
      "stateMutability": "nonpayable",
      "type": "function"
    },
    {
      "inputs": [
        {
          "internalType": "uint256",
          "name": "newRate",
          "type": "uint256"
        }
      ],
      "name": "setPlatformFeeRate",
      "outputs": [],
      "stateMutability": "nonpayable",
      "type": "function"
    },
    {
      "inputs": [
        {
          "internalType": "address",
          "name": "newOwner",
          "type": "address"
        }
      ],
      "name": "transferOwnership",
      "outputs": [],
      "stateMutability": "nonpayable",
      "type": "function"
    },
    {
      "inputs": [],
      "name": "unpause",
      "outputs": [],
      "stateMutability": "nonpayable",
      "type": "function"
    }
  ],
  "bytecode": "0x6080604052600160045560fa60055534801561001a57600080fd5b5060405162001a8138038062001a8183398101604081905261003b91610100565b338061006157604051631e4fbdf760e01b81526000600482015260240160405180910390fd5b61006a816100b0565b506001808055600680546001600160a01b0319166001600160a01b039390931692909217909155336000908152600360205260409020805460ff19169091179055610130565b600080546001600160a01b038381166001600160a01b0319831681178455604051919092169283917f8be0079c531659141344cd1fd0a4f28419497f9722a3daafe3b4186f6b6457e09190a35050565b60006020828403121561011257600080fd5b81516001600160a01b038116811461012957600080fd5b9392505050565b61194180620001406000396000f3fe608060405234801561001057600080fd5b50600436106101585760003560e01c8063859a62d0116100c3578063d794d2d91161007c578063d794d2d914610338578063d9c312f41461035b578063e74b981b1461036e578063e8097b7e14610381578063eeca08f014610394578063f2fde38b1461039d57600080fd5b8063859a62d01461025b5780638da5cb5b146102ef578063927fef2e1461030057806395ccea6714610313578063b1724b4614610326578063b6a6d1771461033057600080fd5b8063565e614f11610115578063565e614f146101e75780635c975abb14610207578063715018a61461022557806374b7e9501461022d5780637e788685146102405780638456cb591461025357600080fd5b8063155fa0521461015d5780633de3932d146101725780633f4ba83a1461019857806346904840146101a0578063549ec614146101cb57806354fbebf8146101d4575b600080fd5b61017061016b366004611605565b6103b0565b005b610185610180366004611620565b6103d9565b6040519081526020015b60405180910390f35b610170610787565b6006546101b3906001600160a01b031681565b6040516001600160a01b03909116815260200161018f565b61018560045481565b6101706101e2366004611653565b610799565b6101fa6101f536600461167f565b610ac9565b60405161018f91906116d0565b600054600160a01b900460ff165b604051901515815260200161018f565b610170610c2a565b61021561023b36600461167f565b610c3c565b61017061024e366004611605565b610d6c565b610170610d98565b6102d861026936600461167f565b600260208190526000918252604090912080546001820154928201546003830154600484015460058501546006860154600787015460089097015495976001600160a01b0390811697958116969481169593949293919260ff8082169261010083041691600160a81b9004168b565b60405161018f9b9a99989796959493929190611798565b6000546001600160a01b03166101b3565b61017061030e36600461167f565b610da8565b61017061032136600461180b565b610dfb565b61018562093a8081565b61018560b481565b610215610346366004611605565b60036020526000908152604090205460ff1681565b61017061036936600461167f565b610e2d565b61017061037c366004611605565b610fc1565b61017061038f36600461167f565b611035565b61018560055481565b6101706103ab366004611605565b61130b565b6103b8611346565b6001600160a01b03166000908152600360205260409020805460ff19169055565b60006103e3611373565b6103eb61139e565b6001600160a01b03841661043e5760405162461bcd60e51b8152602060048201526015602482015274496e76616c696420746f6b656e206164647265737360581b60448201526064015b60405180910390fd5b6000831161048e5760405162461bcd60e51b815260206004820152601d60248201527f576167657220616d6f756e74206d75737420626520706f7369746976650000006044820152606401610435565b60b482101580156104a2575062093a808211155b6104e15760405162461bcd60e51b815260206004820152601060248201526f24b73b30b634b210323ab930ba34b7b760811b6044820152606401610435565b6040516370a0823160e01b8152336004820152849084906001600160a01b038316906370a0823190602401602060405180830381865afa158015610529573d6000803e3d6000fd5b505050506040513d601f19601f8201168201806040525081019061054d9190611835565b101561059b5760405162461bcd60e51b815260206004820152601a60248201527f496e73756666696369656e7420746f6b656e2062616c616e63650000000000006044820152606401610435565b60048054600091826105ac83611864565b90915550604080516101608101825282815233602082015260009181018290526001600160a01b03891660608201526080810188905260a0810187905260c0810182905260e081018290526101008101829052610120810182905291925061014082015260008281526002602081815260409283902084518155908401516001820180546001600160a01b03199081166001600160a01b0393841617909155938501519282018054851693821693909317909255606084015160038083018054909516918416919091179093556080840151600482015560a0840151600582015560c0840151600682015560e08401516007820155610100808501516008830180546101208801516001600160a81b0319909116921515610100600160a81b031916929092179190941690910217808355610140850151919391929160ff60a81b1990911690600160a81b90849081111561070957610709611698565b02179055506107269150506001600160a01b0383163330886113c8565b604080516001600160a01b038816815260208101879052908101859052339082907f0129b9f60bf8bd0ece0e81335d51549a32dd3928ff3e3885281ffe32c522540e9060600160405180910390a391505061078060018055565b9392505050565b61078f611346565b610797611435565b565b3360009081526003602052604090205460ff16806107c157506000546001600160a01b031633145b61080d5760405162461bcd60e51b815260206004820152601760248201527f4e6f7420617574686f72697a6564207265736f6c7665720000000000000000006044820152606401610435565b8160008111801561081f575060045481105b61083b5760405162461bcd60e51b81526004016104359061187d565b61084361139e565b600083815260026020526040902060016008820154600160a81b900460ff16600381111561087357610873611698565b146108b25760405162461bcd60e51b815260206004820152600f60248201526e4475656c206e6f742061637469766560881b6044820152606401610435565b600881015460ff16156108ff5760405162461bcd60e51b8152602060048201526015602482015274111d595b08185b1c9958591e481c995cdbdb1d9959605a1b6044820152606401610435565b806007015442101561094a5760405162461bcd60e51b8152602060048201526014602482015273111d595b081b9bdd081e595d08195e1c1a5c995960621b6044820152606401610435565b60018101546001600160a01b0384811691161480610977575060028101546001600160a01b038481169116145b6109b45760405162461bcd60e51b815260206004820152600e60248201526d24b73b30b634b2103bb4b73732b960911b6044820152606401610435565b6008810180546001600160a01b038516610100026001600160a81b03199091161760011760ff60a81b1916600160a91b17905560048101546000906109fa9060026118a6565b9050600061271060055483610a0f91906118a6565b610a1991906118c3565b90506000610a2782846118e5565b60038501549091506001600160a01b03168115610a5257610a526001600160a01b038216888461148a565b8215610a7257600654610a72906001600160a01b0383811691168561148a565b866001600160a01b0316887fd2d14203a8502465d92786f3415ee5b15563e80ba4d30d71c42fd866247d111d84604051610aae91815260200190565b60405180910390a35050505050610ac460018055565b505050565b610b266040805161016081018252600080825260208201819052918101829052606081018290526080810182905260a0810182905260c0810182905260e08101829052610100810182905261012081018290529061014082015290565b81600081118015610b38575060045481105b610b545760405162461bcd60e51b81526004016104359061187d565b6000838152600260208181526040928390208351610160810185528154815260018201546001600160a01b0390811693820193909352928101548216938301939093526003808401548216606084015260048401546080840152600584015460a0840152600684015460c0840152600784015460e0840152600884015460ff8082161515610100808701919091528204909316610120850152929392610140850192600160a81b9091041690811115610c0f57610c0f611698565b6003811115610c2057610c20611698565b9052509392505050565b610c32611346565b61079760006114bb565b600081600081118015610c50575060045481105b610c6c5760405162461bcd60e51b81526004016104359061187d565b60008381526002602081815260408084208151610160810183528154815260018201546001600160a01b0390811694820194909452938101548316918401919091526003808201548316606085015260048201546080850152600582015460a0850152600682015460c0850152600782015460e0850152600882015460ff80821615156101008088019190915282049094166101208601529192610140850192600160a81b90041690811115610d2457610d24611698565b6003811115610d3557610d35611698565b905250905060018161014001516003811115610d5357610d53611698565b148015610d6457508060e001514210155b949350505050565b610d74611346565b6001600160a01b03166000908152600360205260409020805460ff19166001179055565b610da0611346565b61079761150b565b610db0611346565b6103e8811115610df65760405162461bcd60e51b815260206004820152601160248201527008ccaca40e4c2e8ca40e8dede40d0d2ced607b1b6044820152606401610435565b600555565b610e03611346565b610e29610e186000546001600160a01b031690565b6001600160a01b038416908361148a565b5050565b80600081118015610e3f575060045481105b610e5b5760405162461bcd60e51b81526004016104359061187d565b610e6361139e565b600082815260026020526040902060018101546001600160a01b03163314610ecd5760405162461bcd60e51b815260206004820152601760248201527f4f6e6c792063726561746f722063616e2063616e63656c0000000000000000006044820152606401610435565b60006008820154600160a81b900460ff166003811115610eef57610eef611698565b14610f3c5760405162461bcd60e51b815260206004820152601a60248201527f43616e206f6e6c792063616e63656c206f70656e206475656c730000000000006044820152606401610435565b60088101805460ff60a81b1916600360a81b1790556003810154600182015460048301546001600160a01b0392831692610f7a92849291169061148a565b60018201546040516001600160a01b039091169085907ff23018098ba2c323e6c8ee5657b8805051f16431a10b69d98455375a4250c88b90600090a35050610e2960018055565b610fc9611346565b6001600160a01b0381166110135760405162461bcd60e51b8152602060048201526011602482015270125b9d985b1a59081c9958da5c1a595b9d607a1b6044820152606401610435565b600680546001600160a01b0319166001600160a01b0392909216919091179055565b61103d611373565b61104561139e565b80600081118015611057575060045481105b6110735760405162461bcd60e51b81526004016104359061187d565b6000828152600260205260408120906008820154600160a81b900460ff1660038111156110a2576110a2611698565b146110df5760405162461bcd60e51b815260206004820152600d60248201526c223ab2b6103737ba1037b832b760991b6044820152606401610435565b6001810154336001600160a01b03909116036111345760405162461bcd60e51b815260206004820152601460248201527310d85b9b9bdd081a9bda5b881bdddb88191d595b60621b6044820152606401610435565b60028101546001600160a01b03161561118f5760405162461bcd60e51b815260206004820152601960248201527f4475656c20616c726561647920686173206f70706f6e656e74000000000000006044820152606401610435565b60038101546004808301546040516370a0823160e01b815233928101929092526001600160a01b03909216919082906370a0823190602401602060405180830381865afa1580156111e4573d6000803e3d6000fd5b505050506040513d601f19601f820116820180604052508101906112089190611835565b10156112565760405162461bcd60e51b815260206004820152601a60248201527f496e73756666696369656e7420746f6b656e2062616c616e63650000000000006044820152606401610435565b6004820154611273906001600160a01b03831690339030906113c8565b6002820180546001600160a01b031916331790554260068301819055600583015461129d916118f8565b6007830181905560088301805460ff60a81b1916600160a81b1790556006830154604080519182526020820192909252339186917f78184f31bdf5ce89ef3fc98fdaf2cc8dd0b3c3ce8efd3720b1e38d2d12025fbb910160405180910390a350505061130860018055565b50565b611313611346565b6001600160a01b03811661133d57604051631e4fbdf760e01b815260006004820152602401610435565b611308816114bb565b6000546001600160a01b031633146107975760405163118cdaa760e01b8152336004820152602401610435565b600054600160a01b900460ff16156107975760405163d93c066560e01b815260040160405180910390fd5b6002600154036113c157604051633ee5aeb560e01b815260040160405180910390fd5b6002600155565b6040516001600160a01b03848116602483015283811660448301526064820183905261142f9186918216906323b872dd906084015b604051602081830303815290604052915060e01b6020820180516001600160e01b03838183161783525050505061154e565b50505050565b61143d6115bf565b6000805460ff60a01b191690557f5db9ee0a495bf2e6ff9c91a7834c1ba4fdd244a5e8aa4e537bd38aeae4b073aa335b6040516001600160a01b03909116815260200160405180910390a1565b6040516001600160a01b03838116602483015260448201839052610ac491859182169063a9059cbb906064016113fd565b600080546001600160a01b038381166001600160a01b0319831681178455604051919092169283917f8be0079c531659141344cd1fd0a4f28419497f9722a3daafe3b4186f6b6457e09190a35050565b611513611373565b6000805460ff60a01b1916600160a01b1790557f62e78cea01bee320cd4e420270b5ea74000d11b0c9f74754ebdbfc544b05a25861146d3390565b600080602060008451602086016000885af180611571576040513d6000823e3d81fd5b50506000513d91508115611589578060011415611596565b6001600160a01b0384163b155b1561142f57604051635274afe760e01b81526001600160a01b0385166004820152602401610435565b600054600160a01b900460ff1661079757604051638dfc202b60e01b815260040160405180910390fd5b80356001600160a01b038116811461160057600080fd5b919050565b60006020828403121561161757600080fd5b610780826115e9565b60008060006060848603121561163557600080fd5b61163e846115e9565b95602085013595506040909401359392505050565b6000806040838503121561166657600080fd5b82359150611676602084016115e9565b90509250929050565b60006020828403121561169157600080fd5b5035919050565b634e487b7160e01b600052602160045260246000fd5b600481106116cc57634e487b7160e01b600052602160045260246000fd5b9052565b815181526020808301516101608301916116f4908401826001600160a01b03169052565b50604083015161170f60408401826001600160a01b03169052565b50606083015161172a60608401826001600160a01b03169052565b506080830151608083015260a083015160a083015260c083015160c083015260e083015160e0830152610100808401516117678285018215159052565b5050610120838101516001600160a01b03169083015261014080840151611790828501826116ae565b505092915050565b8b81526001600160a01b038b811660208301528a8116604083015289811660608301526080820189905260a0820188905260c0820187905260e08201869052841515610100830152831661012082015261016081016117fb6101408301846116ae565b9c9b505050505050505050505050565b6000806040838503121561181e57600080fd5b611827836115e9565b946020939093013593505050565b60006020828403121561184757600080fd5b5051919050565b634e487b7160e01b600052601160045260246000fd5b6000600182016118765761187661184e565b5060010190565b6020808252600f908201526e125b9d985b1a5908191d595b081251608a1b604082015260600190565b80820281158282048414176118bd576118bd61184e565b92915050565b6000826118e057634e487b7160e01b600052601260045260246000fd5b500490565b818103818111156118bd576118bd61184e565b808201808211156118bd576118bd61184e56fea26469706673582212204ab599166b14399621b646eec3ae91a6ef60e0b3872ba45030819bd16f853f9b64736f6c63430008140033",
  "linkReferences": {},
  "deployedLinkReferences": {}
}